:100000000C94DC000C94F9000C94F9000C94F900A9
:100010000C94F9000C94F9000C94F9000C940B0367
:100020000C94F9000C94F9000C94F9000C94F9006C
:100030000C94F9000C94F9000C94E9020C94F9006A
:100040000C94F9000C94F9000C949C010C94CA01D6
:100050000C94F9000C94F9000C94F9000C94F9003C
:100060000C94F9000C94F9006E616E00696E6600E4
:100070006364696E6F70737578585B656667454633
:100080004700616E006E66696E69747900CDCCCCF4
:100090003D0AD7233C17B7D13877CC2B329595E65C
:1000A000241FB14F0A000020410000C84200401C3C
:1000B0004620BCBE4CCA1B0E5AAEC59D7400407A89
:1000C00010F35A00A0724E18090010A5D4E80000E1
:1000D000E87648170000E40B54020000CA9A3B007F
:1000E0000000E1F505000080969800000040420FF6
:1000F000000000A08601000000102700000000E8BA
:1001000003000000006400000000000A000000007E
:10011000000100000000002C76D888DC674F08231F
:10012000DFC1DFAE59E1B1B796E5E3E453C63AE685
:1001300051997696E8E6C28426EB898C9B62ED4065
:100140007C6FFCEFBC9C9F40F2BAA56FA5F49005B4
:100150005A2AF75C936B6CF9676DC11BFCE0E40DE8
:1001600047FEF520E6B500D0ED902E0300943577DC
:10017000050080841E080000204E0A000000C80C04
:10018000333333330F986E12831141EF8D2114896D
:100190003BE65516CFFEE6DB18D1844B381BF77CC7
:1001A0001D901DA4BBE424203284725E228100C90C
:1001B000F124ECA1E53D270011241FBECFEFD8E0CC
:1001C000DEBFCDBF11E0A0E0B1E0ECEFFBE102C08B
:1001D00005900D92A230B107D9F712E0A2E0B1E08C
:1001E00001C01D92A131B107E1F70E941D030C94DB
:1001F000FC0D0C9400008FE99DE090930B0280931E
:100200000A0280E4809366000000E6EBF0E0808163
:100210008062808381E08093B10008951092B200E3
:100220008091B6008A71E1F720E030E02F5F3F4F08
:100230008091B2008436D0F3C90108951F9310E86D
:100240000E940E0120910A0230910B0228173907F3
:1002500028F4209166002150209366000000209130
:100260000A0230910B028217930728F4209166004E
:100270002F5F20936600000020910A0230910B024C
:100280008217930709F411E01150D1F61F910895D8
:100290000E94FB0080E28093080210920D021092EF
:1002A0000C020E941E0180916600089520910A02AE
:1002B00030910B022817390748F48FEF809307021B
:1002C0008091660090910802891B0BC082179307EA
:1002D00060F481E0809307028091660090910802AB
:1002E000890F80936600000006C081E090E0909343
:1002F0000D0280930C02809108028695809308027B
:10030000089580910E028F5F80930E02843059F41D
:10031000809110028093660081E090E090930D023E
:1003200080930C0208958091660090910702890FD6
:1003300080936600000008951F920F920FB60F92EF
:1003400011242F938F939F93EF93FF939091C0006D
:100350008091C600E0910301EF5FEF7720910201E9
:10036000E21741F09871E0930301F0E0EA57FE4F85
:10037000808301C092E080910602892B809306025F
:10038000FF91EF919F918F912F910F900FBE0F9042
:100390001F9018951F920F920FB60F9211248F93F2
:1003A0009F93EF93FF93909104018091050198171B
:1003B00069F0E0910501EF5FEF77E0930501F0E070
:1003C000EA5FFE4F80818093C60005C08091C10026
:1003D0008F7D8093C100FF91EF919F918F910F903E
:1003E0000FBE0F901F9018951092040110920501F6
:1003F000109203011092020197FF04C022E02093A3
:10040000C0009F779093C5008093C40088E98093D3
:10041000C10086E08093C20008959091030180910D
:100420000201981781F0E0910201EF5FEF77E0930E
:100430000201F0E0EA57FE4F2081809106021092FF
:10044000060230E002C020E031E0C9010895909139
:1004500004019F5F9F77209105019217E1F3E92F37
:10046000F0E0EA5FFE4F8083909304018091C10029
:1004700080628093C1000895EF92FF92CF93DF9343
:10048000E82EE7017E01F92EE70102C00E94270253
:1004900089918823D9F7DF91CF91FF90EF9008954C
:1004A000CF93DF93EC0102C00E942702FE01219648
:1004B00084918823C9F7DF91CF910895809103013A
:1004C0002091020190E081589F4F821B91096FE7B4
:1004D00070E00E94AB0B08958091020180930301AC
:1004E000089520E030E006C042E04A95F1F700C0F0
:1004F0002F5F3F4F28173907BCF3089520E030E005
:1005000008C0EFECF7E03197F1F700C000002F5F73
:100510003F4F28173907ACF3089540E021E030E061
:1005200009C0F901E89F9001E99F300DF89F300D57
:1005300011244F5F4617A8F3C9010895FF920F9346
:100540001F93FC01DA0180818823A9F170E0062F56
:1005500001502FC02191203309F1332727FD309519
:1005600020533040F02EF71A10E081E090E00CC0EC
:10057000AC01440F551F880F991F880F991F880FD2
:10058000991F840F951F1F5F1F1590F3829FA00175
:10059000839F500D929F500D112402C040E050E007
:1005A0008D919C911197840F951F11969C938E931A
:1005B0007F5F761778F21F910F91FF90089582E088
:1005C00084BD95E095BD80936E0085BB8FEF87BDA0
:1005D00008951F920F920FB60F9211248F939F933D
:1005E00088B190E1892788B99F918F910F900FBEB4
:1005F0000F901F90189582E08093B00097E0909341
:10060000B1008093700087BB8FE18093B30080E2DC
:100610008093B60008951F920F920FB60F92112487
:100620008F939F9388B190E2892788B99F918F918A
:100630000F900FBE0F901F9018950E9448010E94C6
:10064000FB020E94DF028CE090E00E94F4018091A6
:1006500066000E9427028AE00E94270287B1806319
:1006600087B9789484E690E00E947E02FBCFA3E1F4
:10067000B0E0EDE3F3E00C94BE0B6C017F876E8776
:10068000FC0117821682838181FD04C06FC34C85F3
:100690005D8504C01E010894211C311CF601938164
:1006A000EE85FF8593FD859193FF8191FF87EE870E
:1006B000882309F457C3853241F493FD859193FF54
:1006C0008191FF87EE87853259F490E0B6014A8B1D
:1006D0005B8B0E94540D4A895B895D874C87D7CF1D
:1006E00010E0FF2400E00032B0F48B3269F08C326D
:1006F00028F4803251F0833271F40BC08D3239F01E
:10070000803349F401602CC00260046029C0086095
:1007100027C0006125C007FD2EC0282F20532A3096
:1007200098F406FF08C0812F880F182F110F110FA2
:10073000180F120F15C08F2D880FF82EFF0CFF0C0D
:10074000F80EF20E00620CC08E3221F406FD0AC3D0
:10075000006406C08C3611F4006802C0883659F473
:10076000EE85FF8593FD859193FF8191FF87EE874D
:10077000882309F0B8CF982F9554933018F400616E
:10078000805E06C0982F9556933008F09BC10F7E6F
:1007900006FF16E06FE3E62EE022853619F4F0E45A
:1007A000EF2A07C0863619F420E8E22A02C01111A8
:1007B0001150E7FE06C01C3340F4912E939427E0BD
:1007C0000BC0183030F4212F06C027E03CE3932EF5
:1007D00003C027E017E09924CA0104969D878C87FF
:1007E000FA016081718182819381A101092D0E94AA
:1007F000090C5C016980262D30E0398B288B60FE66
:1008000003C0388933FF06C0E1FC06C0E2FE06C023
:1008100000E205C00DE203C00BE201C000E08889E0
:1008200099898C7090700097C1F1002311F084E0D9
:1008300001C083E08F1558F4F81AE3FC09C080E288
:1008400090E0B6010E94540DFA94C9F701C0FF244C
:10085000002329F0802F90E0B6010E94540D888972
:1008600083FD03C00CE610E00EC008E610E00BC0EC
:10087000A114B10409F0805290E0B6010E94540D19
:100880000F5F1F4F05C0AE2CBB2490E1A922BB24F3
:10089000F8018491882361F762C2E7FE0EC09A0CCA
:1008A000F889F4FF04C08A81813309F49A941914F9
:1008B00054F5292D293050F52DC0E6FC2BC0812F91
:1008C00090E08A159B054CF03CEFA3163FEFB30672
:1008D00024F080E8E82A01C01150112349F0E2E039
:1008E000F0E0EC0FFD1FE10FF11D80818033A1F3DB
:1008F000E7FE10C0912E9394812F90E0A816B906C0
:1009000044F41A1907C09924939404C098E0992ECE
:1009100001C010E0E7FE07C01A141B043CF4950167
:100920002F5F3F4F05C025E030E002C021E030E0FE
:10093000002311F02F5F3F4F112329F0812F90E00A
:100940000196280F391F8F2D90E02817390714F4CE
:10095000F21A01C0FF244E2C5524C20189709070F8
:10096000009749F406C080E290E0B6010E94540D61
:10097000FA94FF20C1F7002329F0802F90E0B60100
:100980000E94540D43FC09C006C080E390E0B6010C
:100990000E94540DFA94FF20C1F7E7FE46C03501CE
:1009A000B7FE02C06624772425010894411C511C1F
:1009B00046185708420C531CF501E919F1094F017B
:1009C000812F90E000271127081B190BFFEF6F16EE
:1009D000FFEF7F0629F48EE290E0B6010E94540DED
:1009E000A614B70434F0861497041CF4F201808135
:1009F00001C080E30894610871080894411C511CEF
:100A0000601671062CF090E0B6010E94540DDECF06
:100A10006A147B0441F49A81963320F4953319F4D7
:100A2000F889F4FF81E390E049C08A81813311F0B5
:100A30002FEE622290E0B6010E94540D112389F03E
:100A40008EE290E0B6010E94540D02E0F101E00F49
:100A5000F11D0F5F808190E0B6010E94540D11508E
:100A6000A9F744FE03C085E490E002C085E690E06B
:100A7000B6010E94540DB7FC05C0A114B10441F4A5
:100A800064FE06C0B094A194B108B3948DE201C095
:100A90008BE290E0B6010E94540D80E305C08F5FA9
:100AA000E6EFFFEFAE0EBF1EFAE0AF16B104BCF7E3
:100AB00090E0B6010E94540DC501C096B6010E9497
:100AC000540D4DC1833631F0833789F0833509F0F9
:100AD00059C022C09A012E5F3F4F3D872C87FA01F3
:100AE00080818983310181E0A82EB12C13C09A0145
:100AF0002E5F3F4F3D872C87FA016080718006FF93
:100B000003C0612F70E002C06FEF7FEFC3010E944E
:100B1000070D5C010F7714C09A012E5F3F4F3D8790
:100B20002C87FA016080718006FF03C0612F70E09E
:100B300002C06FEF7FEFC3010E94FC0C5C010068F4
:100B400003FD1CC006C080E290E0B6010E94540D77
:100B5000FA948F2D90E0A816B906A8F30FC0F30100
:100B600007FD859107FF81913F0190E0B6010E944A
:100B7000540DF110FA940894A108B108A114B1041D
:100B800071F7EDC0843611F0893661F507FF0BC0AF
:100B90009A012C5F3F4F3D872C87FA01608171815C
:100BA000828193810CC09A012E5F3F4F3D872C8735
:100BB000FA0160817181882777FD8095982F0F76E3
:100BC00097FF08C090958095709561957F4F8F4FE6
:100BD0009F4F0068A1012AE030E00E949B0D982EF3
:100BE000921841C0853721F40F7E2AE030E020C002
:100BF000097F8F36A9F0803720F4883509F0B2C01C
:100C00000BC0803721F0883709F0ACC001C000610B
:100C100004FF09C0046007C004FF08C0066006C0E6
:100C200028E030E005C020E130E002C020E132E001
:100C300007FF0AC0CA0104969D878C87FA0160816C
:100C400071818281938109C0CA0102969D878C8738
:100C5000FA016081718180E090E0A1010E949B0D0A
:100C6000982E92180F7706FF09C00E7F911630F468
:100C700004FF06C002FD04C00F7E02C0E92C01C0C3
:100C8000E12E802F90E004FF0CC0FE01E90DF11D64
:100C90002081203311F4097E09C0E39402FF06C0CD
:100CA00004C086789070009709F0E394A02EBB24CE
:100CB00003FD14C000FF0FC0EF1428F4192D1F0D01
:100CC0001E19EF2C08C0192D06C080E290E0B60175
:100CD0000E94540DE394EF14C0F304C0EF1410F419
:100CE000FE1801C0FF24A4FE0FC080E390E0B6010F
:100CF0000E94540DA2FE1FC0A1FE03C088E590E033
:100D000010C088E790E00DC0C5018678907000970C
:100D100091F0A1FC02C080E201C08BE207FD8DE2F0
:100D200090E0B6010E94540D06C080E390E0B60149
:100D30000E94540D11509116C0F39A94F101E90DDF
:100D4000F11D808190E0B6010E94540D9920A9F711
:100D500006C080E290E0B6010E94540DFA94FF2094
:100D6000C1F795CCF6012681378102C02FEF3FEF06
:100D7000C9016396E2E10C94DA0B20FD09C0FC0185
:100D800023FD05C022FF02C0738362835183408329
:100D90000895EF92FF920F931F9344FD10C046FDFC
:100DA00010C0DB01FC01AA0FBB1FEE1FFF1F109438
:100DB000D1F76A0F7B1F8E1F9F1F31E003C033E006
:100DC00001C034E0660F771F881F991F3150D1F79B
:100DD0007B018C01E20EF11C011D111DA801970180
:100DE000B701CA011F910F91FF90EF900895EF9204
:100DF000FF920F931F93CF93DF938C01C8010E9442
:100E0000120DEC0197FD09C00E94E10C0097B1F7AB
:100E10007E01CE01B8010E94800DCE01CDB7DEB7B4
:100E2000E6E00C94E60BA1E0B0E0E9E1F7E00C9419
:100E3000C40B6C014B015A01122F0E94120D8B3210
:100E400019F08D3269F410680894810891088114B2
:100E5000910409F478C0C6010E94120D97FD73C079
:100E6000312F3D7F232F207331F5803321F50894F6
:100E7000810891088114910409F450C0C601398396
:100E80000E94120D398197FD49C03260883711F0F8
:100E9000883579F4306408948108910881149104AC
:100EA000E9F1C60139830E94120D398197FF03C011
:100EB00035C036FF3061EE24FF248701282F2053F0
:100EC000283090F034FD09C02A3070F036FF05C09C
:100ED0002F7D422F4151463030F0B60139830E94B8
:100EE000800D398118C02750C801B701432F3983BD
:100EF0000E94C9067B018C01398132600894810807
:100F000091088114910469F0C60139830E94120D81
:100F1000398197FFD3CF31FD04C015C0EE24FF24E3
:100F2000870137FF08C010950095F094E094E11C0C
:100F3000F11C011D111DC501B801A701232F0E943D
:100F4000BD0681E001C080E02196ECE00C94E00B4E
:100F5000A0E2B0E0EEEAF7E00C94C00B5C016B019C
:100F60008A0179019E012F5F3F4F80E2F9011192C2
:100F70008A95E9F7F501938080E090E0B0E088245D
:100F8000A0E061E070E0F70193FC659093FE619052
:100F90007F01662009F481C0F62DFE3511F400971B
:100FA00051F14A2F50E04817590744F4462D4D356A
:100FB00051F14D3219F4882001F103C0882009F461
:100FC000B62D462D469546954695F901E40FF11D3F
:100FD000462D47702B0102C0440C551C4A95E2F780
:100FE0008080842880826B1659F06B1610F463940D
:100FF000E8CF6A94E6CFA1E004C08824839401C0BE
:1010000088240196C0CF882019F08E8180628E835B
:10101000AA2351F0CE018196FE01319620812095C0
:101020002193E817F907D1F7992493943E01089486
:10103000611C711C01C09924C5010E94120D97FD0D
:1010400024C0282F269526952695F301E20FF11D41
:10105000208130E0AC014770507002C03595279573
:101060004A95E2F720FD04C0B5010E94800D0DC035
:101070000115110519F0F80181938F010894C10839
:10108000D108C114D104B9F602C0992031F4011578
:10109000110529F0F801108202C0EE24FF24C701D7
:1010A000A096E0E10C94DC0B2F923F924F925F925E
:1010B0006F927F928F929F92AF92BF92CF92DF9268
:1010C000FF920F931F93CF93DF935C01EB011A0103
:1010D0000E94120D8C018B3219F08D3279F402C00E
:1010E000FF2402C0F0E8FF2E219709F4FEC0C501DD
:1010F0000E94120D8C0197FF02C0F7C0FF24C801A7
:101100000E94E90C89369105E9F08E36910581F54A
:1011100016C0219771F0C5010E94120D6C0197FD58
:1011200008C00E94E90C881679F0C601B5010E943A
:10113000800D80E00838180709F0D7C00FC002E81A
:1011400010E002C005E810E0F8010F5F1F4F849027
:101150008820F9F6E0E005381E0729F060E070E02D
:1011600080E89FE7B7C060E070E080EC9FE7B2C026
:10117000442455243201CC24DD24202F20532A304E
:1011800038F5F2E0FF2A4F2D50E0CA0188709070C8
:10119000F2FE06C0009711F50894C11CD11C1EC0B8
:1011A000009719F00894C108D108C301B20140E2C8
:1011B0000E94C9062B013C0188E9481689E95806B6
:1011C00089E9680689E1780648F0E4E0FE2A06C06D
:1011D0002E3F61F4F3FC0AC0F8E0FF2A219731F0BA
:1011E000C5010E94120D8C0197FFC7CFF1FE7DC093
:1011F000053611F00534D9F5219709F476C0C501FB
:101200000E94120D8C0197FD70C08B3221F08D323F
:1012100049F480E1F82A219709F467C0C5010E94CA
:10122000120D8C01C801C0978A30910508F05DC08D
:1012300088249924B401882777FD8095982F202F42
:10124000205340E20E94C9064B01219741F0C5019D
:101250000E94120D8C01C0978A30910558F3F4FE5C
:1012600004C09094819491089394C80CD91C209741
:1012700031F017FD04C0C801B5010E94800DC30103
:10128000B2010E94BA0AD7FE07C0C1EAD0E0D094EA
:10129000C194D108D39402C0C9EBD0E0E6E0AE2EF1
:1012A000B12C00E210E009C0FE0125913591459175
:1012B00054910E94F70AC01AD10AC016D106A0F7AD
:1012C000169507950894A108B108A114B10411F06E
:1012D0002497F3CFF7FC90582114310441F0F10129
:1012E000608371838283938302C080E001C081E0C8
:1012F000DF91CF911F910F91FF90DF90CF90BF9022
:10130000AF909F908F907F906F905F904F903F90A5
:101310002F900895A1E0B0E0E0E9F9E00C94C00B53
:101320006C015B013A01FC0117821682EE240AC1AE
:10133000812F90E00E94E10C009721F0C6010E94ED
:10134000F70600C1153241F4F50103FD359103FFA5
:1013500031915F01353261F4C6010E94120D97FD93
:10136000FDC0181709F4EEC0B6010E94800DF8C048
:101370003A3241F403FD359103FF31915F01FF24BF
:10138000F39401C0FF24442455240FC0F2E0FF2A47
:10139000B20180E090E040E20E94C9062B01F50115
:1013A00003FD359103FF31915F01232F20532A3034
:1013B00068F3F1FE04C04114510421F4D1C0442467
:1013C0004A94542C383619F03C3699F40AC0F50189
:1013D00003FD359103FF31915F01383651F4F8E098
:1013E000FF2A44E0F42AF50103FD359103FF319112
:1013F0005F01332309F4B4C080E790E0632F70E00D
:1014000039830E94F10C3981009709F4A9C08F2D0E
:10141000F0FC08C0F3010081118142E050E0640E4D
:10142000751E02C000E010E03E3651F4F601468120
:10143000578160E070E0C8012F2D0E94BD0682C078
:101440003336B9F481FD03C0A1E04A2E512CC60108
:101450000E94120D97FD82C00115110519F0F801C7
:1014600081938F010894410851084114510479F780
:1014700067C03B3559F4C601B201A80195010E942D
:10148000A8075C01009709F05BC055C0C60139830D
:101490000E94F706398197FD61C03F36E1F1303790
:1014A00038F43436A9F13936C1F13835E9F52DC0B3
:1014B000333751F0343718F43037B1F526C03537AB
:1014C00039F1383789F521C0C6010E94120D4C014F
:1014D00097FD15C00E94E10C009729F0C401B601E8
:1014E0000E94800D0CC00115110519F0F8018192C0
:1014F0008F010894410851084114510429F701153E
:101500001105F1F0F80110821BC0F0E4FF2A05C0BC
:1015100040E2F42A02C050E1F52AC601B201A80156
:101520002F2D0E94130705C0C601B201A8010E9419
:101530005408882329F4F6018381807379F410C05C
:10154000F0FEE394F6010381F50103FD159103FF1D
:1015500011915F01112309F0EBCE02C0EE2019F0CA
:101560002E2D30E002C02FEF3FEFC9012196E0E1C0
:101570000C94DC0BE89409C097FB3EF490958095A1
:10158000709561957F4F8F4F9F4F9923A9F0F92F49
:1015900096E9BB279395F695879577956795B795C7
:1015A000F111F8CFFAF4BB0F11F460FF1BC06F5FAD
:1015B0007F4F8F4F9F4F16C0882311F096E911C0BF
:1015C000772321F09EE8872F762F05C0662371F0E0
:1015D00096E8862F70E060E02AF09A95660F771FF4
:1015E000881FDAF7880F9695879597F908950BD09D
:1015F00078C069D028F06ED018F0952309F05AC051
:101600005FC01124A2C07ED0A0F3959FD1F3950FA7
:1016100050E0551F629FF001729FBB27F00DB11D76
:10162000639FAA27F00DB11DAA1F649F6627B00D06
:10163000A11D661F829F2227B00DA11D621F739FEF
:10164000B00DA11D621F839FA00D611D221F749FFD
:101650003327A00D611D231F849F600D211D822F44
:10166000762F6A2F11249F5750408AF0E1F088238B
:101670004AF0EE0FFF1FBB1F661F771F881F915098
:101680005040A9F79E3F510570F014C05EC05F3F07
:10169000ECF3983EDCF3869577956795B795F795CB
:1016A000E7959F5FC1F7FE2B880F911D9695879553
:1016B00097F9089597F99F6780E870E060E00895D2
:1016C0009FEF80EC089500240A941616170618065A
:1016D0000906089500240A94121613061406050636
:1016E0000895092E0394000C11F4882352F0BB0FC7
:1016F00040F4BF2B11F460FF04C06F5F7F4F8F4F2A
:101700009F4F089557FD9058440F551F59F05F3F64
:1017100071F04795880F97FB991F61F09F3F79F013
:1017200087950895121613061406551FF2CF469595
:10173000F1DF08C0161617061806991FF1CF869517
:101740007105610508940895E894BB2766277727FB
:10175000CB0197F9089597FB092E07260AD077FD4C
:1017600004D043D006D000201AF4709561957F4FC5
:101770000895F6F7909581959F4F08952F923F9287
:101780004F925F926F927F928F929F92AF92BF9291
:10179000CF92DF92EF92FF920F931F93CF93DF933D
:1017A000CDB7DEB7CA1BDB0B0FB6F894DEBF0FBE9A
:1017B000CDBF09942A88398848885F846E847D84E7
:1017C0008C849B84AA84B984C884DF80EE80FD80E9
:1017D0000C811B81AA81B981CE0FD11D0FB6F8945F
:1017E000DEBF0FBECDBFED010895AA1BBB1B51E1AB
:1017F00007C0AA1FBB1FA617B70710F0A61BB70B81
:10180000881F991F5A95A9F780959095BC01CD0125
:101810000895283008F027E03327DA01990F311DA9
:1018200087FD916000966105710539F432602E5F85
:101830003D9330E32A95E1F708959F3F30F08038DB
:101840007105610509F03C5F3C5F3D93913008F004
:101850008068911DDF93CF931F930F93FF92EF92B8
:10186000192F987F9695E92F96959695E90FFF2762
:10187000E95EFE4F99273327EE24FF24A701E701F5
:1018800005900894079428F4360FE71EF81E491FA8
:10189000511D660F771F881F991F0694A1F70590A9
:1018A000079428F4E70EF81E491F561FC11D770F35
:1018B000881F991F661F0694A1F70590079428F4C6
:1018C000F80E491F561FC71FD11D880F991F661F8D
:1018D000771F0694A1F70590079420F4490F561F2F
:1018E000C71FD81F990F661F771F881F0694A9F777
:1018F00084911095177041F0D695C79557954795E7
:10190000F794E7941A95C1F7EDEBF0E06894159021
:10191000159135916591959105907FE27395E11848
:10192000F10A430B560BC90BD009C0F7E10CF11EAD
:10193000431F561FC91FD01D7EF4703311F48A95C2
:10194000E6CFE894015030F0080F0AF400270217A0
:1019500008F4202F2395022F7A3328F079E37D9322
:101960002A95E9F710C07D932A9589F606949795F4
:101970006795379517951794E118F10A430B560BA5
:10198000C90BD00998F023957E9173957A3308F0AE
:1019900070E37C932013B8F77E9170617D9330F0F3
:1019A000839571E37D9370E32A95E1F71124EF901D
:1019B000FF900F911F91CF91DF91992787FD90950F
:1019C0000895911116C1803219F089508550D0F7D1
:1019D00008959111089581548A5108F4805E855AC2
:1019E0000895FC010590061621F00020D9F7C001EA
:1019F00008953197CF010895FC0105906150704022
:101A00000110D8F7809590958E0F9F1F0895FC01C7
:101A10006150704001900110D8F7809590958E0F1D
:101A20009F1F0895CF93DF93EC013B8130FF36C0B9
:101A300036FF09C03F7B3B838E819F8101969F8348
:101A40008E832A8129C032FF0FC0E881F98180810D
:101A5000992787FD9095009719F430623B831EC04B
:101A60003196F983E88311C0EA85FB85CE0109959B
:101A700097FF0BC02B813FEF8F3F930711F480E15D
:101A800001C080E2822B8B8309C02E813F812F5FB2
:101A90003F4F3F832E83282F30E002C02FEF3FEFD0
:101AA000C901DF91CF9108950F931F93CF93DF93D7
:101AB0008C01EB018B8181FF1BC082FF0DC02E8149
:101AC0003F818C819D812817390764F4E881F98171
:101AD0000193F983E88306C0E885F985802F09958D
:101AE000009731F48E819F8101969F838E8302C07F
:101AF0000FEF1FEFC801DF91CF911F910F91089554
:101B0000FB01238120FF13C026FD11C03FEF8F3F53
:101B1000930769F0828320642F7D23832681378198
:101B20002150304037832683282F30E002C02FEF2A
:101B30003FEFC9010895FA01AA27283051F1203159
:101B400081F1E8946F936E7F6E5F7F4F8F4F9F4F51
:101B5000AF4FB1E03ED0B4E03CD0670F781F891F93
:101B60009A1FA11D680F791F8A1F911DA11D6A0F61
:101B7000711D811D911DA11D20D009F468943F9114
:101B80002AE0269F11243019305D3193DEF6CF0113
:101B90000895462F4770405D4193B3E00FD0C9F7D9
:101BA000F6CF462F4F70405D4A3318F0495D31FD46
:101BB0004052419302D0A9F7EACFB4E0A695979599
:101BC000879577956795BA95C9F70097610571056F
:101BD00008959B01AC010A2E0694579547953795B9
:101BE0002795BA95C9F7620F731F841F951FA01D13
:0C1BF0000895992788270895F894FFCFE6
:021BFC00FF00E8
:00000001FF
